:020000040000fa
:080000000002040000000000f2
:020000040000fa
:04000800ee02000004
:020000040000fa
:04000c00ee02000000
:020000040000fa
:04001000ee020000fc
:020000040000fa
:04001400ee020000f8
:020000040000fa
:04001800ee020000f4
:020000040000fa
:04001c00ee020000f0
:020000040000fa
:04002000ee020000ec
:020000040000fa
:04002400ee020000e8
:020000040000fa
:04002800ee020000e4
:020000040000fa
:04002c00ee020000e0
:020000040000fa
:04003000ee020000dc
:020000040000fa
:04003400ee020000d8
:020000040000fa
:04003800ee020000d4
:020000040000fa
:04003c00ee020000d0
:020000040000fa
:04004000cc020000ee
:020000040000fa
:04004400ee020000c8
:020000040000fa
:04004800ee020000c4
:020000040000fa
:04004c00ee020000c0
:020000040000fa
:04005000ee020000bc
:020000040000fa
:04005400ee020000b8
:020000040000fa
:04005800ee020000b4
:020000040000fa
:04005c00ee020000b0
:020000040000fa
:04006000ee020000ac
:020000040000fa
:04006400ee020000a8
:020000040000fa
:04006800ee020000a4
:020000040000fa
:04006c00ee020000a0
:020000040000fa
:04007000ee0200009c
:020000040000fa
:04007400ee02000098
:020000040000fa
:04007800ee02000094
:020000040000fa
:04007c00ee02000090
:020000040000fa
:04008000ee0200008c
:020000040000fa
:04008400ee02000088
:020000040000fa
:04008800ee02000084
:020000040000fa
:04008c00ee02000080
:020000040000fa
:04009000ee0200007c
:020000040000fa
:04009400ee02000078
:020000040000fa
:04009800ee02000074
:020000040000fa
:04009c00ee02000070
:020000040000fa
:0400a000ee0200006c
:020000040000fa
:0400a400ee02000068
:020000040000fa
:0400a800ee02000064
:020000040000fa
:0400ac00ee02000060
:020000040000fa
:0400b000ee0200005c
:020000040000fa
:0400b400ee02000058
:020000040000fa
:0400b800ee02000054
:020000040000fa
:0400bc00ee02000050
:020000040000fa
:0400c000ee0200004c
:020000040000fa
:0400c400ee02000048
:020000040000fa
:0400c800ee02000044
:020000040000fa
:0400cc00ee02000040
:020000040000fa
:0400d000ee0200003c
:020000040000fa
:0400d400ee02000038
:020000040000fa
:0400d800ee02000034
:020000040000fa
:0400dc00ee02000030
:020000040000fa
:0400e000ee0200002c
:020000040000fa
:0400e400ee02000028
:020000040000fa
:0400e800ee02000024
:020000040000fa
:0400ec00ee02000020
:020000040000fa
:0400f000ee0200001c
:020000040000fa
:0400f400ee02000018
:020000040000fa
:0400f800ee02000014
:020000040000fa
:0400fc00ee02000010
:020000040000fa
:04010000ee0200000b
:020000040000fa
:04010400ee02000007
:020000040000fa
:04010800ee02000003
:020000040000fa
:04010c00ee020000ff
:020000040000fa
:04011000ee020000fb
:020000040000fa
:04011400ee020000f7
:020000040000fa
:04011800ee020000f3
:020000040000fa
:04011c00ee020000ef
:020000040000fa
:04012000ee020000eb
:020000040000fa
:04012400ee020000e7
:020000040000fa
:04012800ee020000e3
:020000040000fa
:04012c00ee020000df
:020000040000fa
:04013000ee020000db
:020000040000fa
:04013400ee020000d7
:020000040000fa
:04013800ee020000d3
:020000040000fa
:04013c00ee020000cf
:020000040000fa
:04014000ee020000cb
:020000040000fa
:04014400ee020000c7
:020000040000fa
:04014800ee020000c3
:020000040000fa
:04014c00ee020000bf
:020000040000fa
:04015000ee020000bb
:020000040000fa
:04015400ee020000b7
:020000040000fa
:04015800ee020000b3
:020000040000fa
:04015c00ee020000af
:020000040000fa
:04016000ee020000ab
:020000040000fa
:04016400ee020000a7
:020000040000fa
:04016800ee020000a3
:020000040000fa
:04020800ee02000002
:020000040000fa
:04020c00ee020000fe
:020000040000fa
:04021000ee020000fa
:020000040000fa
:04021400ee020000f6
:020000040000fa
:04021800ee020000f2
:020000040000fa
:04021c00ee020000ee
:020000040000fa
:04022000ee020000ea
:020000040000fa
:04022400ee020000e6
:020000040000fa
:04022800ee020000e2
:020000040000fa
:04022c00ee020000de
:020000040000fa
:04023000ee020000da
:020000040000fa
:04023400ee020000d6
:020000040000fa
:04023800ee020000d2
:020000040000fa
:04023c00ee020000ce
:020000040000fa
:04024000cc020000ec
:020000040000fa
:04024400ee020000c6
:020000040000fa
:04024800ee020000c2
:020000040000fa
:04024c00ee020000be
:020000040000fa
:04025000ee020000ba
:020000040000fa
:04025400ee020000b6
:020000040000fa
:04025800ee020000b2
:020000040000fa
:04025c00ee020000ae
:020000040000fa
:04026000ee020000aa
:020000040000fa
:04026400ee020000a6
:020000040000fa
:04026800ee020000a2
:020000040000fa
:04026c00ee0200009e
:020000040000fa
:04027000ee0200009a
:020000040000fa
:04027400ee02000096
:020000040000fa
:04027800ee02000092
:020000040000fa
:04027c00ee0200008e
:020000040000fa
:04028000ee0200008a
:020000040000fa
:04028400ee02000086
:020000040000fa
:04028800ee02000082
:020000040000fa
:04028c00ee0200007e
:020000040000fa
:04029000ee0200007a
:020000040000fa
:04029400ee02000076
:020000040000fa
:04029800ee02000072
:020000040000fa
:04029c00ee0200006e
:020000040000fa
:0402a000ee0200006a
:020000040000fa
:0402a400ee02000066
:020000040000fa
:0402a800ee02000062
:020000040000fa
:0402ac00ee0200005e
:020000040000fa
:0402b000ee0200005a
:020000040000fa
:0402b400ee02000056
:020000040000fa
:0402b800ee02000052
:020000040000fa
:0402bc00ee0200004e
:020000040000fa
:0402c000ee0200004a
:020000040000fa
:0402c400ee02000046
:020000040000fa
:0402c800ee02000042
:020000040000fa
:0402cc00ee0200003e
:020000040000fa
:0402d000ee0200003a
:020000040000fa
:0402d400ee02000036
:020000040000fa
:0402d800ee02000032
:020000040000fa
:0402dc00ee0200002e
:020000040000fa
:0402e000ee0200002a
:020000040000fa
:0402e400ee02000026
:020000040000fa
:0402e800ee02000022
:020000040000fa
:0402ec00ee0200001e
:020000040000fa
:0402f000ee0200001a
:020000040000fa
:0402f400ee02000016
:020000040000fa
:0402f800ee02000012
:020000040000fa
:0402fc00ee0200000e
:020000040000fa
:04030000ee02000009
:020000040000fa
:04030400ee02000005
:020000040000fa
:04030800ee02000001
:020000040000fa
:04030c00ee020000fd
:020000040000fa
:04031000ee020000f9
:020000040000fa
:04031400ee020000f5
:020000040000fa
:04031800ee020000f1
:020000040000fa
:04031c00ee020000ed
:020000040000fa
:04032000ee020000e9
:020000040000fa
:04032400ee020000e5
:020000040000fa
:04032800ee020000e1
:020000040000fa
:04032c00ee020000dd
:020000040000fa
:04033000ee020000d9
:020000040000fa
:04033400ee020000d5
:020000040000fa
:04033800ee020000d1
:020000040000fa
:04033c00ee020000cd
:020000040000fa
:04034000ee020000c9
:020000040000fa
:04034400ee020000c5
:020000040000fa
:04034800ee020000c1
:020000040000fa
:04034c00ee020000bd
:020000040000fa
:04035000ee020000b9
:020000040000fa
:04035400ee020000b5
:020000040000fa
:04035800ee020000b1
:020000040000fa
:04035c00ee020000ad
:020000040000fa
:04036000ee020000a9
:020000040000fa
:04036400ee020000a5
:020000040000fa
:04036800ee020000a1
:020000040000fa
:100400006f8120000eff20000e0188000000000018
:10041000000020000000e000020032000001200087
:1004200020028800140007006e0007000000e000b2
:1004300003003a00a06d21000100200002003700f7
:100440000000200001002000810f70000100320038
:1004500014000700000020000000e000020032004d
:1004600000000200000000005a1502000000000019
:100470000040da000000fe004440a9000000200017
:100480000000e0000300320000002000a00188000e
:100490004440a800000006008a1f78008b1f7800e7
:1004a0000000060091018800800478000000eb0045
:1004b0001a003700e284440032a0b4009905ba0063
:1004c000e284440032a0b4009906ba00e2844400f9
:1004d00032a0b4000006eb00476fde00fd07b2005b
:1004e000636ce10003003a00ebff07000000eb0043
:1004f0000a003700606ce10004003a00005deb0088
:100500008b05e900fdff3e00040037006168e10053
:10051000010032000086eb000b00070019c7ba008b
:100520001905ba000e04e00003003a000a00e000da
:10053000e0ff3a0000000600fe07b2009e018800be
:100540008a047800f5ff3700395dba008b05e900b1
:100550000c003200295dba008b05e900080032006a
:100560000c00e00003003a00e284440032a0b40032
:10057000f5ff370019ddba008b05e900faff3a00f4
:100580008904e800e184440032a0b40000000600c1
:100590000000000000000000809fbe000000fa0084
:1005a00084c0a900104080000000e80010408800ce
:1005b0001140800020408000808f500004003600f1
:1005c00010c0b30000e8b7000228ef0094c0a900f3
:1005d0000080fa004f00be00004006000040da0034
:1005e0000000fe0000000500140020009203370008
:1005f000f4ff2f00900337000001be002400070025
:100600000470a70003f0a1006509b10016003200d4
:100610000d0035006828e10006003500f0ff2f00ce
:10062000f1ff27000300e00013003b000100280059
:100630000000050000004000818048008502e900bc
:10064000fcff3a0008003700f88f420002003c002f
:100650008000eb00000005008100d1000080d30085
:100660008502e800fcff3a000300e00002003b00c6
:1006700060001000e0801800000006004f89de00d6
:1006800082017800870337006011b80095033700b6
:10069000c70ade00f107b200f50fb2000800320011
:1006a000e1cf4200020032000170a00024000500ea
:1006b000810f7000010032000408050044000500ad
:1006c000810f700002003a00140005008502e90065
:1006d0000000400081c04800fcff3b000170a0000a
:1006e0002400050007f82700078361000638e100b1
:1006f00004003a00f7072000878361008703710038
:1007000001003a0003f0a200889fbe008a9fbe004d
:100710008c9fbe00470ade000480a100c71ade00dd
:100720000580a1000700280007856000878561001b
:10073000f70f20000720e1009e0032000728e100ab
:100740009c003200010678000400e000b400320092
:10075000f7072000878060000170a0000500e0001e
:10076000c0003200f7072000878161000370a000fd
:10077000050652000f003a000b50e1000b0032005a
:100780000308e10002003a000200e1007e003200ae
:100790000204500083845800040031000001fd0071
:1007a0008101fd008402fd008a05fd006044b8005f
:1007b000210037000520e10005003d000001fd009b
:1007c0008101fd008402fd008a05fd00050652003e
:1007d0007a60e100050035000170a1004722dd00cc
:1007e000848070008a807000630037006044b80025
:1007f000ef02660007ff2f00070666000500e00015
:1008000006003400f08312008714dd000511de00bd
:10081000071bdd00060171008519de007060e10034
:10082000050035000904780082047800030178008f
:100830008001eb00700656000b50e10003003a0007
:100840000200400083804800040037006004140068
:10085000e0841c0002005800838058000188a30037
:10086000060032008100d1000080d3008984d300cb
:100870000884d3000402e800270037000178a300b1
:1008800025003a000100e000030032008186cf001d
:10089000698656000a0037008c0020000000e00046
:1008a00004003a0009007800880478000004eb0096
:1008b000700252008086cf000d0646000c06e9004b
:1008c0007060e100060035008000780009007800c3
:1008d000880478000004eb00700656007002520095
:1008e0000c00e0000c0034008c08dd00f003160062
:1008f0000703de00868070000c00dd00074bde0081
:10090000060070008c4cdd000743de008684740016
:100910000c44dd000c0252006120e1002000350093
:10092000610160000700280087816400f7ff27004d
:1009300087836400070374000300e00006003200b0
:1009400082037300040032000000e800e0804800e9
:100950000188a3000e003a00f70f20000720e100f5
:100960004a003d000170a1004722dd0081007200b5
:100970008a8070000000be004f06be004f05be001a
:100980004f04be00000006006000b800faff370008
:100990008100d1000080d3000402e800eeff3700a0
:1009a0000401780089017400a10107008a807000a9
:1009b000f1ff3700f7010700070278000001fd0092
:1009c0008101fd00f30107008702780085037200b2
:1009d0000778a300040032000001fd008101fd0042
:1009e00006020700e4ff3700850362000768a300e2
:1009f000080032000b50e10003003200f0ff2f002e
:100a0000f1ff2700dcff37000001fd008101fd0040
:100a1000d9ff37000468a300d7ff3200faff370080
:100a2000f8ff2700888360000b003a000000e00018
:100a300009003a00830364008283730002003200dd
:100a40000200be00ccff37000b50e100ceff3a00a1
:100a50000200be00c8ff37001400200081006400bf
:100a60003eff3700f8ff27008883610004003a004a
:100a70000200e00002003a008c007800beff370060
:100a8000150020008301640039ff370001f82700ba
:100a90000000200081007500b7ff3700889fbe006e
:100aa0008a9fbe008c9fbe001b0020000202be0079
:100ab0000586680006002800060666004709de0075
:100ac000f20fb200820032000243e80080003200e0
:100ad000c729de00f30fb2007d0032000343e800b7
:100ae0007b003200f107b2000170a000f507b200f0
:100af0000570a000c708dd004903de008680700095
:100b00004700dd00c72add004923de00868272002f
:100b10004722dd000305510004035000858358007f
:100b20000300310000004000818048000a05e90010
:100b30008c1f78008a9fbe000400500085805800fa
:100b40000402420085824a00000040008180480083
:100b50000005eb000004be006033b8000406be00d0
:100b60000d48e10056003100110009004dccd800bd
:100b70000c01b8000d02b8008481410060824a0077
:100b80008283530003045c0084845c0060055d0084
:100b90000a00e00025003a00800578000d40e100e1
:100ba0004900310088007800070078001100090032
:100bb0004d88d8000c01b8000d02b80084814100b6
:100bc00060824a006003110083835b0004045c00c0
:100bd000e0845c000900e00021003a004f01be0003
:100be0000300e0002b003200e30160000706730001
:100bf0008c81710001003200640070004200de0050
:100c00004e5edd000c007000c258de0001e0a00066
:100c100083010700cf017800818071004f06be007c
:100c20004f05be004f04be00000006008c83430049
:100c30000d044c00e0844c0060054d000000e9000c
:100c40000a00e000d4ff32008c8343000d044c0006
:100c5000e0844c0060054d000000e900ceff370045
:100c60000c0343008d834b0060044c00e0844c0077
:100c70000000e9000900e000d8ff32000c03430047
:100c80008d834b0060044c00e0844c000000e900c0
:100c9000d2ff37004200de004e5edd000c00700027
:100ca000c258de0001e0a000cf0178000300e000a0
:100cb000daff320060001000e0801800d7ff370034
:100cc000f0ff2f00aaff3700f0ff2f00b9ff370019
:100cd0000404be002f010700870678000004fd0011
:100ce0008104fd002b010700078366000678a3003e
:100cf000030032000960a7000800be002c00370086
:100d00000d78a300020032000800be002800370062
:100d10000778a30026003a0001f0a10009f0a10025
:100d20000668a30003003200f1ff2700f0ff2f0048
:100d3000baff37000d68a300030032000800be00b0
:100d40008c807000b5ff37000768a30007003a00e9
:100d50000648a30003003200f1ff2700f0ff2f0038
:100d6000aeff37000d48a300030032006000b8005a
:100d70008c807000a9ff37000748a30004003200f0
:100d800001f82700000020008c807000a3ff3700ce
:100d9000760107000004fd008104fd0002057800d3
:100da000720107000802be008a01780059ff37006f
:100db0000160a00012022000a240880097ff3700c7
:100dc0000100e000120032000500e00010003200d7
:100dd000889fbe008a9fbe008c9fbe000006eb006d
:100de00001f8a3000300320060001000e08018004a
:100df0000cf0a00005f8a30003003200600212000e
:100e0000e0821a000cf0a2008005eb0041ff3700e1
:100e10006000b80002000500038368000700280096
:100e200007036300470ade000480a100c71ade0042
:100e30000580a100f70f20000720e10042003200ea
:100e40000728e10040003200889fbe008a9fbe0054
:100e50008c1f7800f107b200f307b2000400e00035
:100e6000640032000170a0000500e000680032005c
:100e70000370a00085054200eb07b1000204b80032
:100e80000302b8008484440060854a00020ab80066
:100e9000848444000a854a00030ab800040545001a
:100ea000040033000804d0008984d2000a85d200ef
:100eb0008b05e9006158e1003d003500021020007b
:100ec000090161000308200089816100f707200003
:100ed0008783640008867300c84cde00c853dd00b9
:100ee000878474004855de000300e00006003200ed
:100ef00082037600040032008904e80060054d009a
:100f00000a88a3000c003a00f70f20000758e10000
:100f100044003d000a70a100c75ddd000a85750030
:100f20008a007300090078004f0678004f05be0064
:100f30004f04be00000006000a05d1008984d300da
:100f40008b05e800f0ff3700881f78000604780062
:100f500090000700070278000001fd008101fd00fc
:100f60008c00070087027800850372000778a300d1
:100f7000050032000001fd008101fd009f00070017
:100f80004f04780000000600850372000748a300a4
:100f900003003200f0ff2f00f1ff2700f8ff3700b9
:100fa0000000200001f8270088807000f4ff37005f
:100fb000880178004848dd00808171004848de00e3
:100fc000c850dd0001007000c850de000604780043
:100fd0000b0178001600070088807000d2ff3700f0
:100fe0000500e00005003200170020003a0007006d
:100ff0009dff370081037000f9ff3a0086007800fa
:101000004f0678004f05be004f04be0000000500eb
:1010100083037100f9ff3200270020002e00070033
:1010200094ff370001f8270086807000f4ff370036
:101030000100e00026003200610111007810e1009b
:1010400023003c006022b8007010e100040035006d
:1010500080027800010078008000eb0070015100f0
:101060000200e0000900340070031100062add00d0
:10107000822ade008603dd00878272000200de0025
:10108000860bdd00070070008208de00848171009d
:10109000f4ff2700048262008481710004002800ac
:1010a000848262006102600005f0a6000000060074
:1010b00004827100070032000000e800e080480070
:1010c000000006000002be006000b800efff37001d
:1010d0006000b80000000600889fbe000004eb001e
:1010e0006138e10016003a000100e00008003a0013
:1010f000c800de004800dd00880020000100e0009c
:1011000003003a00c800de004800dd006804440027
:101110008184cf00e9845400060034008908dd0092
:10112000f08314008703de00878070000900dd0073
:1011300009044400610214004f04be0000000600d0
:101140000300e00008003a00c811de004811dd008d
:10115000880020000300e00003003a00c811de0010
:101160004811dd00680444008384cf00e984540002
:10117000060034008919dd00f08314008713de00b7
:10118000878171000911dd0009044400e1021400a7
:10119000e9ff37002700200001f0a700170020001a
:1011a000470bde00f60fb200040032000643e800f1
:1011b0000a0032004702b300000006000103780075
:1011c000f607b2000603700002003a000703b300fe
:1011d000000006008702b30000000600010378004b
:1011e000f607b20006037000020032000770a0008c
:1011f000000006000760a000000006000478a300bd
:10120000040032000578a300030032000168a30047
:1012100001003a000200be000160a00000000600cc
:1012200081017000270032008002eb0001f8a3006a
:101230000300320060001000e0801800150020005c
:10124000f40720000202420020003400f7032000cf
:1012500087036000060420000003630002082000ea
:10126000000161004700de00c909dd000080710057
:10127000c708de000600e0000800320087037100a6
:10128000060032001000b0000180b0000188a30009
:1012900002003200c108de000402e800f107b200db
:1012a000f30f20000320e10003003d004722dd0092
:1012b000810072002900370001f827000000eb00d0
:1012c000260037006000b800000006006802120027
:1012d0007f20e100020034006000b8001f003700ea
:1012e0006011b8007020e100040035008001780032
:1012f000010078008000eb00700252000400e00062
:1013000009003400f00312000719dd008419de0023
:101310000703dd00868171000400de00070bdd009d
:10132000060070008408de00f7ff27008383630057
:1013300087037100060028000303630007003200e2
:101340000700e00003003a006101600002817300c1
:10135000020032001000b0000180b0000500a600bd
:101360000000060001f0a000000006004f0ade00a9
:101370004709de00f107b200f20fb2000b003200a5
:10138000f207b1000170a000c708dd00c901de004e
:10139000838070004700dd000400a6000000060006
:1013a00060001000e080180000000600810f70004f
:1013b00001003a00000006008182cf000500e00035
:1013c00010003e008082cf00ee8242007028e100d3
:1013d0000400390007003e00800078000000eb00a8
:1013e0000e003700708312008600de000500dd006d
:1013f0000a003700708352008600dd000000eb0019
:1014000006003700e28252008508dd00708312007a
:101410000603de00868070000500dd007507b00061
:101420000501ea000400a6000000060060001000ac
:10143000e080180000000600889fbe008a9fbe0062
:10144000841f78007c0007004f00780011003300f3
:10145000f0ff2f00838f6c0006003b000405650041
:101460000a00a7000800370009f0a60010002000bd
:1014700008003700820f5400838f5c00030039009e
:101480001000200001003e000000200009f0a7002d
:101490000000ea004f05be004f04be000000e0005f
:1014a00000000600881f7800030478000300e000b5
:1014b00007003d0060001000e08018006001190086
:1014c000e081190002003b0001f02d00030037000d
:1014d0000400070008f0a70001f0a0004f04780006
:1014e00000000600889fbe008a9fbe000082700038
:1014f0000402710004827100260032000004be0064
:101500000200be006011b8006b09200095022000a7
:101510000182cf000a0039000541b1000082cf00ee
:10152000070039000541b1000982cf0004003900ed
:101530000541b1000882cf00010039000541b1002a
:1015400005425200120032000a003b008281710005
:10155000610164008100d1000080d3008984d30040
:101560000884d3008b05e8000442e800f7ff3a0046
:10157000070037000804440089844c00000048003c
:10158000818048008b05e9000442e900f9ff3a0038
:10159000030007004f05be004f04be000000060018
:1015a00081002000618055000b003d000b002000f1
:1015b00061fe2f000100e1001d00340082817100f6
:1015c000610164008904d1000884d3000000e800b0
:1015d000faff3a007100200061006400030070000f
:1015e000020060000900320061044400e0844c0005
:1015f0000988a500050032008b05e8006808e100b5
:1016000002003a008904d1000884d300f20f2000c0
:101610000258e10005003d00c75ddd00f907b2009a
:101620008980750008007800000006000bf827008c
:101630008b007800000005000004be0014fc0700c9
:101640000003be000405be000200be0010fc07003f
:08165000844f75000000060044
:020000040000fa
:101658000000fa00213a8000f08f2f00008060001f
:10166800203a88000080fa00000006000000fa0016
:10167800e024ef00e224ef00c022ef00c822ef00d0
:10168800c422ef00cc22ef000080fa000000060020
:101698000000fa0094c0a90084c0a90031058000a8
:1016a800f08f2f00008060000080a00030058800c7
:1016b8000080fa00000006000000fa0060c0210067
:1016c800d00c8800f0012000e00c88009e21ef007b
:1016d800a021ef00c422a80060c02100200d8800ce
:1016e800f0012000300d8800a821ef00aa21ef00aa
:1016f800cc82a8000080fa00000006000000fa0072
:1017080060c02100d00c8800f0012000e00c8800a7
:1017180060c02100200d8800f0012000300d8800f5
:101728000080fa00000006000000fa009a21ef008d
:101738009c21ef009e21ef00a021ef00a421ef00e3
:10174800a621ef00a821ef00aa21ef000080fa00ef
:10175800000006000200fa00213a8000f08f2f00f6
:10176800008060000080a000203a880060c021004e
:10177800800c8800f0012000900c8800f0c329003c
:10178800a00c880040192100b00c88000000eb0074
:10179800000f7800010037001e0fe80000c4290080
:1017a8009e007800808f5000fbff36000080fa0012
:1017b800000006000000fa009021ef009221ef00df
:1017c800213a8000f08f2f0000806000203a8800c6
:1017d8000080fa00000006000000fa00c062a800bd
:1017e800c9e2a800c902a800c922a800c982a800a5
:1017f800c042a800c9c2a800c842a800c9a2a8003f
:10180800c002a800e044a800e3c4a800e244a8007d
:10181800e3a4a800e004a800cce2a9000080fa0034
:10182800000006000000fa0041e3a90041a3a90056
:101838004143a800011a8000f0cf2f00008060000b
:10184800001a8800011a8000f0f02f0080806000e4
:101858000007200001007000001a88004043a8001b
:10186800111a8000f0ff230000806000101a880021
:1018780043a3a9004363a8004343a800111a8000aa
:1018880030f82f00008060000040a000101a880087
:101898004203a9005640a80045e3a900211a800088
:1018a800f00f2e0000806000201a880020c0b300ce
:1018b80044e3b70010c12200801a880041e3a80061
:1018c8000080fa00000006000000fa0060ff070030
:1018d80066ff07006eff070077ff07009dff070000
:1018e800bdff0700cfff0700b2ff07000080fa0026
:1018f800000006000400fa00000f780011079800a5
:101908001e0078000000e00007003a001e0090006a
:10191800e20f500002003a00c422a8000800370075
:10192800c422a900060037001e009000e20f5000f4
:1019380002003a00cc82a80001003700cc82a9003e
:101948000080fa00000006000200fa00000f78008c
:101958009e00780010002000e6ff07009e00780037
:101968000000eb00e3ff07000080fa00000006001b
:101978000800fa001007980022079800330798001b
:101988006011b8002e009000be00900014fb070004
:101998000000e0000e003a001e0090000000e00089
:1019a80006003a009e21ef00a021ef006000b80079
:1019b800604088007140880005003700a821ef00ca
:1019c800aa21ef006000b80080408800914088009c
:1019d8002e019000be0190000000200001f82300b5
:1019e8002cfc07000240220043a7240008fd070042
:1019f80002002000834c240026fc0700020020007f
:101a080003f8230035fb0700f9fa0700000f7800f8
:101a18001e0090000000e0000a003a001e00780056
:101a2800f00c8800f00c80000000d100000d880048
:101a38002e019000be01900062408800734088002b
:101a4800090037001e007800400d8800400d800016
:101a58000000d100500d88002e019000be019000ba
:101a680082408800934088000080fa000000060049
:101a78000400fa00008fbe001e01be000000eb004b
:101a8800bbff07001e01be0010002000b8ff0700c2
:101a98000080fa00000006000400fa00000f780039
:101aa8001107980084c0a9000228ef001e009000ca
:101ab800204088000068ef0094c0a800a29929007f
:101ac80093e923001e007800a9ff07000bff070019
:101ad8000080fa00000006000200fa00000f7800fb
:101ae80011ff07009e0078000000eb00eaff0700e6
:101af8009e00780010002000e7ff070000000000ab
:101b080000c8bf000004e000fdff320006ff070028
:101b18000080fa00000006000600fa00100798008e
:101b280021079800201680000000d1006140600065
:101b3800004f7800fcfe07001e0090000000e00047
:101b48000c003a001e80fb000000e9004f00de0098
:101b5800004078000080fb00610060000000400049
:101b6800211680000110a1000100700020168800d5
:101b78000b0037001e80fb000000e9004f00de006c
:101b8800004078000080fb00610060004400dd0038
:101b9800611680000140a1000100700060168800f5
:101ba8002e009000ccff0700dffe07009e40780063
:101bb80061c060000080fb00610060000000400020
:101bc800211680000110a100010070002016880075
:101bd8009e40780061c060000080fb0061006000ea
:101be8004400dd00611680000140a1000100700082
:101bf80060168800c1fe07000080fa000000060099
:101c08000a00fa0020079800320798004307980056
:101c1800b2fd2000930424003e009000ce00900006
:101c28009cfb07000200200003fe230078fc07004d
:101c38000200200003fe230075fc070002002000bc
:101c48008334240072fc07000001be00acfa0700d0
:101c5800008fbe001e00be0065fa07000000780075
:101c6800800078002e0090008bff07000080fa00ab
:101c7800000006000400fa00008fbe001e01be002e
:101c88000000eb00deff07001e01be001000200070
:101c9800dbff07000080fa00000006000a00fa00d7
:101ca800889fbe0040079800213a8000f08f2f00df
:101cb800008060000080a000203a88004e0090005c
:101cc800cf80de006bfa07000200200043332400b7
:101cd80070fb0700008fbe000200200003022400f2
:101ce8001e00be004afc07000200200003f023008b
:101cf8007afa07000200200003f0230080fa0700a8
:101d0800200798003107980002002000031a2400d9
:101d18002e009000be0090005efb07000004be008d
:101d2800a00c80008000eb0055fa07000001be00ff
:101d38000800be0036fc07002dfa070000007800f6
:101d4800b00c88004f04be000080fa0000000600b6
:101d58000200fa00000f78001e0078000000e00082
:101d680003003a00604080007140800002003700a4
:101d780080408000914080000080fa00000006004a
:101d88000000fa00889fbe0030408000cf80de004f
:101d980038fa07006266260063f623001cfc070079
:101da8000004be00d01880008000eb0034fa070061
:101db80002cd2c00c3dc230015fc07000001be0087
:101dc8000800be004efa070009fa07000000780074
:101dd8003040880040408000cf80de0025fa0700b0
:101de8006266260063f6230009fc07000004be00b3
:101df800401880008000eb0021fa070002cd2c007b
:101e0800c3dc230002fc07000001be000800be007e
:101e18003bfa0700f6f90700000078004040880008
:101e280050408000cf80de0012fa0700626626006c
:101e380063f62300f6fb07000004be00a01880002c
:101e48008000eb000efa070002cd2c00c3dc230053
:101e5800effb07000001be000800be0028fa0700db
:101e6800e3f9070000007800504088004f04be00e6
:101e78000080fa00000006000200fa00d118800075
:101e8800007d2000808f500006003e004118800031
:101e9800007d2000808f5000020036000000eb001b
:101ea800150037000000eb00000f78000300370032
:101eb80000062100000001001e0fe800f0182000b5
:101ec8009e007800808f5000f9ff3400d118800000
:101ed800007d2000808f50000600360041188000e9
:101ee800007d2000808f5000020036001000200086
:101ef800010037000000eb000080fa000000060037
:101f08000200fa00d118800040512000808f500054
:101f180002003e000000eb000e0037000000eb005e
:101f2800000f7800010037001e0fe800f0182000ad
:101f38009e007800808f5000fbff3400d21880008c
:101f48001000200041512000810f510001003e0087
:101f58000000eb000080fa00000006000200fa0012
:101f6800d1188000c05d2000808f500002003e0024
:101f78000000eb000e0037000000eb00000f7800b7
:101f8800010037001e0fe800f01820009e007800be
:101f9800808f5000fbff3400d21880001000200012
:101fa800c15d2000810f510001003e000000eb00e0
:101fb8000080fa00000006000c00fa00213a8000b8
:101fc800f08f2f00008060000080a000203a880079
:101fd800e0fd07000000eb00000f78000000eb00b8
:101fe80010079800401921002007980017003700b3
:101ff8002e009000b00c88000000eb00300798001d
:10200800030037003e0090000000e8003007980009
:10201800be00900040062000808f5000f9ff340079
:102028009e009000b0188000808f5000040031009e
:10203800ae009000010f7800b018800010079800db
:102048002e0090000000e90020079800ae009000e4
:10205800e0ab2000808f5000e5ff3c00a105200088
:102068001e804000b00c88006000b800400798004f
:1020780051079800060037004e009000de009000df
:1020880061004000e0804800400798005107980030
:102098004e019000de019000006a28001100200027
:1020a800800f5100818f5900f3ff3600cce2a80061
:1020b8000080fa00000006000400fa00881f78007b
:1020c8000000eb0022ff0700008fbe0051168000c1
:1020d80000002800008060000000e00019003200c5
:1020e8005116800000102000008060000000e00011
:1020f80004003a00a099290091d92300008fbe005e
:102108002400370018c0b3000200200003e82300b1
:102118001e00be0034f907000000e00001003c008a
:102128000044eb000804e0001a00320062ba2900fb
:1021380043a423001e00be0068f90700008fbe00fc
:10214800140037005116800000002800008060004d
:102158000000e0000f003a0018c0b30002002000a1
:1021680003ee23001e00be001df907000000e0007a
:10217800010035000044eb000804e00005003200cf
:1021880062ba290043a423001e00be005cf90700c0
:10219800008fbe001e01be000000eb00f4fd07002a
:1021a80010002000eafe0700008fbe001016800015
:1021b800680060000000e00019003200511680003d
:1021c80000202000008060000000e00004003a00c9
:1021d800a099290091d92300008fbe002300370061
:1021e80018c0b3000200200003e823001e00be0050
:1021f800fdf807000000e00001003c000044eb008f
:102208000804e0001900320062ba290043a4230040
:102218001e00be0031f90700008fbe001300370012
:1022280010168000680060000000e0000f003a000f
:1022380018c0b3000200200003ee23001e00be00f9
:10224800e7f807000000e000010035000044eb005b
:102258000804e0000500320062ba290043a4230004
:102268001e00be0026f90700008fbe001e01be003a
:1022780010002000befd07004f0478000080fa001f
:10228800000006000400fa00d007200012fe070034
:10229800811120000000eb001ffe07003000200025
:1022a800a9fd0700302020000bfe07001efd0700d7
:1022b8006000b800008fbe00040037001200200044
:1022c800030020001e0f41005e974900f0d3200054
:1022d800310020001e01be00800f5100818f59007f
:1022e800f6ff340005fd07002000200096fd0700da
:1022f800401f2000f8fd0700811120001000200079
:1023080005fe07000080fa00000006000c00fa0035
:102318000000eb00000f78000200370066ff07009e
:102328001e0fe800300620009e007800808f5000c5
:10233800faff3400010037005fff0700d118800062
:10234800007d2000808f5000040036004118800076
:10235800007d2000808f5000f7ff3e00a0992900e3
:1023680091e92300c2fd0700001e2000dafd0700e6
:10237800100020001007980051168000000021006e
:10238800008060000000e00002003a000000eb005e
:1023980010079800300020006bfd0700c1082000de
:1023a8001e009000dcfd0700e01a2000cafd0700af
:1023b8006000b80020079800310798000600370031
:1023c8002e009000be00900061004000e0804800b0
:1023d80020079800310798002e019000be01900058
:1023e800f09e240021002000800f5100818f5900a9
:1023f800f3ff34002000200053fd0700bffc070056
:102408001e009000e10f50000f003a00020020006b
:1024180003ee23000000eb0055fd0700020020003a
:1024280003ee23001000200051fd0700000000000b
:102438005116800000102000008060000000e000bd
:10244800fbff3a000e0037000200200003ee2300d5
:102458000000eb0046fd07000200200003ee230009
:102468001000200042fd0700000000005116800007
:1024780000202000008060000000e000fbff3a0020
:10248800a00f200094fd0700c10820001e00900046
:10249800a1fd0700300020002bfd0700c01220001e
:1024a8008dfd07006000b8004007980051079800ac
:1024b800060037004e009000de00900061004000ea
:1024c800e080480040079800510798004e019000ae
:1024d800de019000f0342c0001002000800f510034
:1024e800818f5900f3ff34002000200016fd0700fb
:1024f80082fc07000080fa00000006000000fa00d5
:102508007efc07000000200001ec230058fd0700b6
:102518001b0037001afe07005140800070bb2000e6
:10252800808f5000160034000a28ef003000200089
:1025380005fd07008007200067fd07002000200038
:1025480001fd07003140800040408000808f50002e
:1025580004003400811120000000eb006efd07002c
:102568000300370081112000100020006afd0700d9
:1025780062fc07000000200001ec23003cfd07007e
:102588005116800000202000008060000000e0005c
:10259800e0ff3a0051168000001020000080600023
:1025a8000000e000dbff3a00a00a20004afd070017
:1025b8003140800040408000808f5000040034008b
:1025c800811120000000eb0053fd070003003700d5
:1025d80081112000100020004ffd070047fc070074
:1025e8000000200001ec230021fd07000080fa0014
:1025f800000006000000fa00a00a200036fd0700cf
:10260800811120000000eb0043fd07000080fa0064
:10261800000006000000fa00a00a20002efd0700b6
:1026280081112000100020003bfd07003100200030
:102638000000eb00affc0700310020001000200074
:10264800acfc0700803e200023fd070036fc070095
:102658000080fa00000006000800fa00811120003e
:10266800100020002cfd07006000b800008fbe009d
:102678000400370012002000030020001e0f410054
:102688005e974900701a2600010020001e01be0056
:10269800800f5100818f5900f6ff3400811120000e
:1026a8000000eb001cfd07006000b8002007980040
:1026b80031079800060037002e009000be009000f9
:1026c80061004000e080480020079800310798002a
:1026d8002e019000be019000701a26000100200013
:1026e800800f5100818f5900f3ff3400dbff370062
:1026f8000000fa00a099290091e92300dcfc0700fa
:102708000100370000000000a1188000e07a2000d6
:10271800808f50000200360003fc0700faff3700e4
:10272800f00c80000000e000f6ff3a00f3fb070021
:10273800a099290091e92300cdfc0700f2ff37009a
:102748000000fa00a099290091e92300c8fc0700bd
:102758000100370000000000d1188000703e200002
:10276800808f500002003600effb0700faff3700a9
:10277800f00c80000000e000f6ff3a00dffb0700e5
:10278800a099290091e92300b9fc0700f2ff37005e
:102798000000fa00b118800000402000808f50002f
:1027a800040036000000200001f82300b0fc0700f8
:1027b800f8ff3700a099290091e92300acfc070035
:1027c800f4ff37000000fa00d7fb0700b1188000bb
:1027d80040062000808f500002003600cce2a8009e
:1027e800faff3700cce2a900f8ff37000000fa0032
:1027f800210020000000eb003efc07002100200023
:10280800100020003bfc07002bfe0700feff3700ee
:102818000600fa00213a8000f08f2f000080600047
:102828000080a000203a8800cafb07000000eb00e7
:10283800000f7800010037001e0fe80000a62e00e8
:102848009e007800808f5000fbff3600803e2000fd
:10285800b00c880040192100100798000f003700bd
:102868001e009000b00c88000000eb0020079800c4
:10287800030037002e0090000000e80020079800b1
:10288800ae00900040062000808f5000f9ff340011
:102898001e0090000000e900100798009e009000bc
:1028a800e0ab2000808f5000edff3c00ffff3700b9
:1028b8000400fa006000b800008fbe000400370072
:1028c80012002000030020001e0f41005e974900ff
:1028d800f0a72100610020001e01be00800f5100fa
:1028e800818f5900f6ff340001003700f2fd070020
:1028f8005116800000002800008060000000e00001
:10290800faff3a0051168000001020000080600095
:102918000000e000f5ff3a003eff0700a6fd0700b3
:10292800ffff37000000fa00a3fd0700ffff370094
:102938000000fa00cce2a800ffff37000000fa0010
:10294800eefe070078fb0700ffff37000200fa00e1
:10295800000f78001e0078005ffc0700ffff3700bb
:102968000000fa0001003700d3fd0700d1188000ed
:10297800007d2000808f5000fbff360063fe0700bb
:10298800ffff37000000fa0001003700cafd07000a
:102998000118800000192000808f5000fbff3600ce
:1029a80038fe070060fb0700ffff37000000fa0051
:1029b80001003700c0fd0700011880000019200041
:1029c800808f5000fbff360057fb0700ffff3700e2
:1029d8000000fa0001003700b7fd0700511680001b
:1029e80000102000008060000000e000faff3200c4
:1029f80010168000680060000000e000f6ff32005a
:102a08005116800000002800008060000000e000ef
:102a1800f1ff320051168000002020000080600085
:102a28000000e000ecff3200d11880004051200087
:102a3800808f5000e8ff3600411880004051200088
:102a4800808f5000e4ff3600d1188000f07c200011
:102a5800808f50000400360041188000f07c200070
:102a6800808f5000dcff3e00a4fe07002efb07000d
:102a7800ffff37000000fa00010037008efd070055
:102a8800d1188000007d2000808f5000fbff3600a9
:102a980041188000007d2000808f5000f7ff36002d
:102aa8001afe070020fb0700ffff37001200fa009c
:102ab80085fb07006000b800008fbe0004003700e7
:102ac80012002000030020001e0f41005e974900fd
:102ad800f0a72100610020001e01be00800f5100f8
:102ae800818f5900f6ff34000100370072fd07009e
:102af8005116800000102000008060000000e000f7
:102b0800faff3a005116800000002800008060009b
:102b18000000e000f5ff3a00b6fe07000040eb00b9
:102b2800404798000040eb00504798000040eb00f9
:102b3800604798000000eb00000f9800090037007c
:102b48000000000007003700000000000500370003
:102b580000000000030037000000000001003700fb
:102b68000000000054fd07004e4090000004e00003
:102b780026003a00511680000010200000806000f6
:102b88000000e0002100320010168000680060009c
:102b98000000e0001d0032005116800000002800ef
:102ba800008060000000e00018003200511680002c
:102bb80000202000008060000000e00013003200c8
:102bc800d118800040512000808f50000f0036003f
:102bd8004118800040512000808f50000b003600c3
:102be800d1188000f07c2000808f5000040036004f
:102bf80041188000f07c2000808f500003003e00c8
:102c08003efe070010c0b300404798005e409000a9
:102c18000004e00007003a000118800000192000b5
:102c2800808f50000300360096fd070010c0b300e7
:102c3800504798005e4090000004e00026003200f3
:102c48006e4090000004e00023003a00d118800094
:102c5800007d2000808f50001f0036004118800042
:102c6800007d2000808f50001b0036000000eb0024
:102c780040079800030037004e0090000000e8006d
:102c880040079800ce009000f0182000808f500078
:102c9800f9ff34005e4090000004e0000e003200ae
:102ca8006e4090000004e0000b003a00d11880004c
:102cb800007d2000808f50000700360041188000fa
:102cc800007d2000808f5000030036008ffd070034
:102cd80010c0b300604798004e4090000004e00028
:102ce80097ff32006e4090000004e00096ff32002b
:102cf8005116800000102000008060000000e000f5
:102d080093ff3a0051168000000028000080600000
:102d18000000e00090ff3a00101680006800600094
:102d28000000e0008eff3a000000eb00500798001a
:102d380004003700e0fc07005e0090000000e80097
:102d480050079800de00900030062000808f500069
:102d5800f8ff34002ffe070097fc07006000b8005a
:102d68006007980071079800060037006e00900011
:102d7800fe00900061004000e08048006007980075
:102d8800710798006e019000fe019000f0a72100e5
:102d980061002000800f5100818f5900f3ff34003b
:0c2da8000000eb000080fa0000000600b4
:020000040000fa
:102db400000800000c000000000000000c080000e7
:102dc40008000000020000009a9999003e9a9900b8
:102dd400993e0000140800000200000000000000fa
:042de40000000000eb
:020000040000fa
:0200000401f009
:04000c00dfff000012
:020000040000fa
:0200000401f009
:04001000fbff0000f2
:020000040000fa
:0200000401f009
:04001c00fdff0000e4
:00000001FF
